:020000040000fa
:080000000001040000000000f3
:020000040000fa
:100200000f4c21000e7f22000e018800000000002c
:100210000c000700a0a82300010020001f00070019
:10022000000020000000e000020032000000020098
:1002300000000000e8430200000000000040da0077
:100240000000fe004440a900c0b221000000e00010
:100250000300320000002000a00188004440a800f4
:1002600000000600f03fb1000180b100060035003b
:10027000ee03090000000000403fb1000180b10022
:10028000fbff3d001000b000203fb0000200350031
:1002900000800900000000000000060091018800b5
:1002a000800078000000eb0015003700e28040007d
:1002b00032a0b4009101ba00e280400032a0b40044
:1002c0009102ba00e280400032a0b4000002eb00cc
:1002d000472bde00f507b200602ce10004003a0075
:1002e0000059eb008301e900fdff3e0004003700e8
:1002f0006128e100010032000082eb0004000700e9
:100300001101ba000200e000e8ff3a000000060018
:100310003159ba008301e9000c0032002159ba00ba
:100320008301e900080032000400e00003003a0005
:10033000e280400032a0b400f5ff370011d9ba00c6
:100340008301e900faff3a008100e800e180400003
:1003500032a0b400000006000040da000000fe00f9
:100360003200f800910188000008bb00410424001d
:100370006210e10004003200000220000010e100e1
:100380000a003a0051042400013b88000500fc00eb
:1003900051052000313b8800a10a2000313b880034
:1003a00061e7a80000000000000000003200f90032
:1003b000000006003200f80060042400003b8800c2
:1003c000f2ff37003200f80091018800410024005c
:1003d000013b88000208bb00ecff37003200f80048
:1003e0009101880051002400013b88000301200096
:1003f0003218bb008301e900fdff3a00e3ff37003c
:100400003200f8009101880080027800620040000c
:10041000e08048003549ba003204e0000410a7002b
:10042000100032008301e9000e0032002549ba00b5
:100430003204e0000410a7000a0032008301e90042
:10044000080032000408a300eeff320015c9ba000c
:100450003204e0000410a700020032008301e9002a
:10046000e8ff3a003200f90000000600889fbe0055
:100470008a9fbe00010578000100e00004003500fd
:1004800008003c000000e0002000320005003700ba
:1004900060001000e080180002003b0001f02c001a
:1004a0001a0037000004be006011b8006b0920007c
:1004b0000982cf00020039000882cf000441b00059
:1004c000694252000e00320008003b008281710038
:1004d000610164008904d1000884d3008b05e80021
:1004e0000442e800f9ff3a00050037000804440020
:1004f00089844c008b05e9000442e900fbff3a00c7
:10050000130107000af0a70001f0a0004f05be008c
:100510004f04be000000060003f0a200889fbe004a
:100520008a9fbe008c1f78002f0107003601330020
:100530006450e1004f0032006420e10052003200bc
:1005400003826c0007003b000905d0000306d000c1
:10055000820f54000c065d000200390002003200d8
:1005600089017800030678008582550004003d006b
:100570000003fd008103fd008502ea008b85420037
:10058000840f720002003b0060001000e080180041
:100590006011b8000005eb007a28e1000a0039007c
:1005a00006007800c75ddd00f707b20087807500a0
:1005b0002d003700828171000a017800610560001a
:1005c0008180d1000080d3008502e900f9ff3b0063
:1005d000060440008784480002003b0060041400c9
:1005e000e0841c000988a300070032008a817100a2
:1005f00082817100610164008904d1000884d30004
:100600008b05e800170037000978a30013003a00b3
:100610000b00e000130034008b05e90008044400df
:1006200089844c000a4474000978a3000d003a0044
:100630000b00e000070034008b05e90008044400cb
:1006400089844c0001003a000b0020000978a300c7
:10065000f7ff32000001eb000200370082817100d9
:100660000a017800ba0007000cf0a70001f0a00012
:10067000ee0037006420e10002003a00838f6c0036
:10068000ee0033000801be000200be00e7003700a4
:10069000889fbe008a9fbe008c1f7800d200070092
:1006a000d900330003866c006450e1002e00320054
:1006b0006420e100330032006150e1002f0032007d
:1006c0006120e1003100320085855500eb07b00064
:1006d0000900200008042000050037000804440039
:1006e00089844c000a0031000603430087834b00d5
:1006f0000001530081815b00f8ff33000203be005c
:100700000800a0000804440089844c00f6ff39006a
:10071000c639dd00830173000100320013002000a0
:100720008904d1000884d3000998a3000500320091
:100730000800a7000300a0008904d1000884d300aa
:100740008b05e8008904d1000884d3000001eb0088
:100750000281d2007e00070001f0a1000cf0a7008a
:1007600001f0a000b10037006420e100b3003200c6
:100770000801be000200be00f7ff37006120e10063
:10078000ae0032006000b800f3ff37000000200028
:1007900001f82700f0ff37000001be00aa000700a3
:1007a0000470a70003f0a10003f8a30013003a00af
:1007b0006509b10010003200090035006928e10028
:1007c0000200350001002800000005000000400084
:1007d000818048008502e900fcff3a000000060025
:1007e000f88f4200050035008100d1000080d30061
:1007f0008502e800fcff3a00000006008000eb00e4
:1008000000000500889fbe008a9fbe008c1f7800f4
:10081000750007007c00330003866c006450e10023
:10082000240032006420e100270032006150e10022
:10083000220032006120e100210032008b8542005d
:10084000eb07b1000134b800003ab80008044200d8
:1008500089844a00013ab8000030b800888040001e
:1008600009014a0004003300000040008180480074
:10087000020149008b05e900c909dd008301700010
:100880000100320013002000c814de004814dd000f
:100890004709de001200b200c808de0008847000bc
:1008a0002b00070001f0a1000cf0a70001f0a00050
:1008b0005e0037006120e100600032000801be00e8
:1008c0000200be00f7ff37006150e100fcff3a0074
:1008d0005a0037006022b800060220000000d00055
:1008e0008180d2000482d2008582d2000000a00064
:1008f0000202520083825a000300310002024200c9
:1009000083824a000000a1000603e900f3ff3a00d9
:1009100000000600839f68000100e00002003d0027
:1009200060001000e08018000300e00002003d00bd
:1009300060011100e0811900e6ff07004f00e000b0
:1009400002003b0060001000e0801800000006007c
:1009500081002000618055000b003d000b0020004d
:1009600061fe2f000100e1001d0034008281710052
:10097000610164008904d1000884d3000000e8000c
:10098000faff3a007100200061006400030070006b
:10099000020060000900320061044400e0844c0061
:1009a0000988a500050032008b05e8006808e10011
:1009b00002003a008904d1000884d300f20f20001d
:1009c0000258e10005003d00c75ddd00f907b200f7
:1009d0008980750008007800000006000bf82700e9
:1009e0008b007800000005000004be001600070020
:1009f0000003be000405be000200be001200070096
:100a0000844f7500000006000200be006450e10043
:100a1000050036006420e100020036000968a300ea
:100a200001003a000800be000160a0004f067800f7
:100a30004f05be004f04be0000000600f0ff2f006f
:100a4000f1ff2700f9ff3700c70ade00f107b20007
:100a5000f50fb20008003200e1cf42000200320080
:100a60000170a00024000500810f70000100320019
:100a70000408050044000500810f700002003a00e0
:100a8000140005008502e9000000400081c0480014
:100a9000fcff3b000170a0002400050080007800ee
:100aa0003004e000feff3a00010050000000e900c1
:040ab000000006003c
:020000040000fa
:0200000401f009
:04000000e7ff000016
:020000040000fa
:0200000401f009
:04000400c07f0000b9
:020000040000fa
:0200000401f009
:04000800efff000006
:020000040000fa
:0200000401f009
:04001400ffff0000ea
:020000040000fa
:10000800ac010000c6440000ca440000ce44000011
:10001800d2440000ac010000ac010000ac010000bb
:10002800ac010000ac010000ac010000ac01000014
:10003800ac010000ac010000ac010000ac01000004
:10004800ac010000dc380000ac010000ac0100008d
:10005800ac010000ac010000ac010000ac010000e4
:10006800d83b0000ac010000ac010000ac0100006e
:10007800ac010000ac010000ac010000203c000015
:10008800ac010000ac010000ac010000ac010000b4
:10009800ac010000ac010000ac010000ac010000a4
:1000a800ac010000ac010000ac010000ac01000094
:1000b800ac010000ac010000ac01000036420000b9
:1000c800ac010000ac010000ac010000804200005f
:1000d800ac010000ac010000ac010000ac01000064
:1000e800ac010000ac010000ac010000ac01000054
:0800f800ac010000ac010000a6
:020000040000fa
:10010800ac010000c6440000ca440000ce44000010
:10011800d2440000ac010000ac010000ac010000ba
:10012800ac010000ac010000ac010000ac01000013
:10013800ac010000ac010000ac010000ac01000003
:10014800ac010000dc380000ac010000ac0100008c
:10015800ac010000ac010000ac010000ac010000e3
:10016800d83b0000ac010000ac010000ac0100006d
:10017800ac010000ac010000ac010000203c000014
:10018800ac010000ac010000ac010000ac010000b3
:10019800ac010000ac010000ac010000ac010000a3
:1001a800ac010000ac010000ac010000ac01000093
:1001b800ac010000ac010000ac01000036420000b8
:1001c800ac010000ac010000ac010000804200005e
:1001d800ac010000ac010000ac010000ac01000063
:1001e800ac010000ac010000ac010000ac01000053
:0801f800ac010000ac010000a5
:020000040000fa
:100ab400f20300004a01000044430000204c0000ff
:100ac400696e00006b200000566f00006c7400001b
:100ad40061670000652000006d610000780000007f
:100ae40044430000204c0000696e00006b200000ad
:100af4004375000072720000656e000074200000ef
:100b04006d61000078000000496e00007665000009
:100b14007274000065720000205600006f6c0000c3
:100b24007461000067650000206d000061780000ba
:100b3400004900006e7600006572000074650000d4
:100b4400722000004375000072720000656e0000a0
:100b5400742000006d610000780000004443000030
:100b6400204c0000696e00006b2000004d41000025
:100b740058200000547200006970000020560000e4
:100b84006f6c0000746100006765000000440000a1
:100b9400432000004c6900006e6b0000204d0000f3
:100ba400494e0000205400007269000070200000cb
:100bb400566f00006c74000061670000650000005f
:100bc40044430000204c0000696e00006b200000cc
:100bd4005472000069700000204300007572000028
:100be400726500006e740000004900006e7600001b
:100bf40065720000746500007220000054720000e9
:100c040069700000205600006f6c000074610000e1
:100c140067650000004900006e7600006572000000
:100c240074650000722000005472000069700000b6
:100c34002043000075720000726500006e740000ad
:100c4400004e00006f7200006d6100006c690000ce
:100c54007a610000746900006f6e00002043000098
:100c640075720000726500006e740000004d000093
:100c74006f7400006f720000205000006f6c000061
:100c840065730000200000004d6f0000746f0000c9
:100c9400722000004e6f00006d6900006e6100005c
:100ca4006c200000537000006565000064200000a3
:100cb400525000004d0000004d6f0000746f0000a2
:100cc400722000004e6f00006d6900006e6100002c
:100cd4006c20000053750000707000006c790000f7
:100ce4002046000072650000710000004d6f000096
:100cf400746f0000722000004e6f00006d690000e8
:100d04006e6100006c2000005375000070700000dc
:100d14006c790000205600006f6c000074610000c4
:100d240067650000004d00006f7400006f720000e2
:100d3400205200006174000065640000204300003c
:100d440075720000726500006e740000004d0000b2
:100d54006f7400006f720000204e00006f2d0000c1
:100d64004c6f0000616400002043000075720000b5
:100d7400726500006e740000005300006967000093
:100d84006d610000204c00007373000000520000ed
:100d94007300000052720000004c00007300000059
:100da400636f000073200000706800006900000099
:100db40053690000676d0000612000004c7300005f
:100dc4007320000049640000656e0000746900002f
:100dd4006669000065640000004500006c65000061
:100de4006374000072690000636100006c200000fd
:100df400546f00007271000075650000004d000022
:100e04006f7400006f7200002052000061740000d3
:100e140065640000205400006f72000071750000ca
:100e240065000000414e00005f30000020280000f3
:100e34004975000029000000414e00005f310000a8
:100e4400202800004977000029000000414e0000de
:100e54005f3200002028000055750000762900004c
:100e6400004100004e5f00003320000028550000c0
:100e74006463000029000000414e00005f3400005c
:100e8400202800004964000063290000004100009c
:100e94004e5f0000352000002855000076770000e2
:100ea40029000000496e000076650000727400009d
:100eb40065720000205600006f6c00007461000031
:100ec4006765000020280000524d000053290000ef
:100ed400004900006e760000657200007465000031
:100ee400722000004375000072720000656e0000fd
:100ef40074200000285200004d5300002900000017
:100f040044430000204c0000696e00006b20000088
:100f1400566f00006c7400006167000065000000fb
:100f240044430000204c0000696e00006b20000068
:100f34004375000072720000656e000074000000ca
:100f4400496e00007665000072740000657200004e
:100f5400205500006e660000696c000020560000f9
:100f64006f6c0000746100006765000020280000b9
:100f7400524d00005329000000540000524100006b
:100f840043450000204300004f4e00004649000046
:100f94004700000054520000414300004520000077
:100fa400434f00004e540000524f00004c0000001c
:100fb4005472000061630000652000006576000043
:100fc40065720000792000007065000072690000fd
:100fd4006f640000004300006f6d0000706100004a
:100fe4007265000020560000616c00007565000009
:100ff400004300006f6d0000706100007265000026
:101004002050000061720000616d000065740000f2
:1010140065720000204e0000756d000062650000de
:1010240072000000545200004143000045200000bb
:101034005354000041540000450000005354000084
:101044004f520000455f0000504f00005300000065
:1010540054720000616300006520000050610000cc
:10106400726100006d65000074650000722000006c
:101074004e7200003a31000000540000726100001a
:10108400636500002050000061720000616d000083
:101094006574000065720000204e0000723a000082
:1010a40032000000547200006163000065200000fb
:1010b40050610000726100006d65000074650000fd
:1010c400722000004e7200003a3300000054000009
:1010d400726100006365000020500000617200002e
:1010e400616d00006574000065720000204e000010
:1010f400723a000034000000547200006163000082
:101104006520000050610000726100006d65000000
:1011140074650000722000004e7200003a35000031
:10112400005400007261000063650000205000005c
:1011340061720000616d000065740000657200005a
:101144002031000020560000616c0000756500002d
:10115400203d00000054000072610000636500003f
:101164002050000061720000616d00006574000091
:10117400657200002032000020560000616c0000ff
:1011840075650000203d00000054000072610000fd
:10119400636500002050000061720000616d000072
:1011a40065740000657200002033000020560000c2
:1011b400616c000075650000203d000000540000d3
:1011c400726100006365000020500000617200003d
:1011d400616d000065740000657200002034000039
:1011e40020560000616c000075650000203d000081
:1011f400005400007261000063650000205000008c
:1012040061720000616d0000657400006572000089
:101214002035000020560000616c00007565000058
:10122400203d00000054000072610000636500006e
:10123400206100007272000061790000206c0000df
:10124400656e0000677400006800000054720000be
:1012540061630000652000005061000072610000bd
:101264006d65000074650000722000004e7200007d
:101274003a3600000054000072610000636500000b
:101284002050000061720000616d00006574000070
:10129400657200002036000020560000616c0000da
:1012a40075650000203d0000005600006f6c0000d2
:1012b400746100006765000000460000726500006c
:1012c40071750000656e000063790000005600002f
:1012d40064200000526500006600000056710000a2
:1012e40020520000656600000052000065660000a0
:1012f400204100006e6700006c650000204400007f
:10130400656c00007461000000550000204200007c
:101314006f6f0000737400000054000061730000dc
:101324006b3100002050000065720000696f0000fe
:101334006400000054610000736b00003120000061
:1013440053740000616300006b20000055730000bb
:1013540061670000650000004672000065650000da
:101364002053000074610000636b00000053000010
:1013740074610000636b0000204c0000696d000084
:1013840069740000205000006f6900006e74000052
:10139400657200000053000074610000636b00007c
:1013a40020530000697a00006500000054610000c9
:1013b400736b000032200000506500007269000069
:1013c4006f64000000540000617300006b32000081
:1013d4002053000074610000636b0000205500007e
:1013e4007361000067650000005400006173000031
:1013f4006b31000020520000756e00002054000084
:10140400696d00006500000054610000736b00000a
:1014140032200000527500006e2000005469000064
:101424006d650000005000004f520000544600005b
:10143400005000004f5200005444000000500000cf
:101444004f5200005447000000530000595300005d
:101454005f4300004f4e0000545200004f4c000008
:1014640000500000435f0000434f00004e54000052
:10147400524f00004c00000045520000525f000033
:10148400434f00004e540000524f00004c00000037
:10149400417000007020000053740000617400006b
:1014a40065000000444900004f5f000054450000ff
:1014b400535400005f5200004547000000450000ff
:1014c40045500000524f00004d20000043680000ca
:1014d400656300006b730000756d0000004500003b
:1014e40045500000524f00004d200000566100009e
:1014f4006c690000642000002831000030300000d6
:10150400302900000045000045500000524f000003
:101514004d200000557000006461000074650000f7
:10152400202800004465000062750000672900005f
:1015340000450000455f000045520000525f000076
:101544005245000047000000436f00006d7000002a
:10155400696c000065640000207700006974000075
:10156400682000004333000030200000564500008e
:1015740052530000494f00004e0000003232000078
:101584003a330000333a000032310000004a0000d0
:10159400756e000020320000392000003230000057
:1015a4003131000000520000656c000065610000ec
:1015b4007365000000560000657200007369000046
:1015c4006f6e000000000000010000005e85000056
:1015d400c4120000c412000002000000756e000076
:1015e40072000000ffff0000000000000000000087
:1015f4000000000000000000000000000a000000dd
:101604000200000072850000c8120000c812000029
:1016140002000000756e000072000000ffff000071
:1016240000000000000000000000000000000000b6
:10163400000000000a00000003000000868500008e
:10164400ca120000ca12000002000000756e0000f9
:1016540072000000ffff0000000000000000000016
:101664000000000000000000000000000a0000006c
:10167400040000009b850000cc120000cc12000086
:1016840002000000756e000072000000ffff000001
:101694000000000000000000000000000000000046
:1016a400000000000a00000005000000b0850000f2
:1016b400d4120000d412000002000000756e000075
:1016c40072000000ffff00000000000000000000a6
:1016d4000000000000000000000000000a000000fc
:1016e40006000000c9850000d6120000d6120000d2
:1016f40002000000756e000072000000ffff000091
:1017040000000000000000000000000000000000d5
:10171400000000000a00000007000000e28500004d
:10172400d8120000d812000002000000756e0000fc
:1017340072000000ffff0000000000000000000035
:101744000000000000000000000000000a0000008b
:1017540008000000f7850000da120000da12000029
:1017640002000000756e000072000000ffff000020
:101774000000000000000000000000000000000065
:10178400000000000a000000090000000d860000af
:10179400dc120000dc12000002000000756e000084
:1017a40072000000ffff00000000000000000000c5
:1017b4000000000000000000000000000a0000001b
:1017c4000a00000023860000d2120000d21200009a
:1017d40002000000736e000072000000ffff0000b2
:1017e40000000000000000000000000000000000f5
:1017f400000000000a000000140000003986000008
:101804003a1400003a14000002000000736e000055
:1018140072000000ffff0000000000000000000054
:101824000000000000000000000000000a000000aa
:101834001500000046860000241400002414000053
:1018440002000000736e000072000000ffff000041
:101854000000000000000000000000000000000084
:10186400000000000a000000160000005e86000070
:10187400261400002614000002000000736e00000d
:1018840072000000ffff00000000000000000000e4
:101894000000000000000000000000000a0000003a
:1018a40017000000788600002814000028140000a7
:1018b40002000000736e000072000000ffff0000d1
:1018c4000000000000000000000000000000000014
:1018d400000000000a0000001800000095860000c7
:1018e4002a1400002a14000002000000736e000095
:1018f40072000000ffff0000000000000000000074
:101904000000000000000000000000000a000000c9
:1019140019000000a98600002c1400002c140000fb
:1019240002000000736e000072000000ffff000060
:1019340000000000000000000000000000000000a3
:10194400000000000a0000001a000000bf8600002a
:101954002e1400002e14000002000000736e00001c
:1019640072000000ffff0000000000000000000003
:101974000000000000000000000000000a00000059
:101984001b000000c9860000301400003014000061
:1019940002000000736e000072000000ffff0000f0
:1019a4000000000000000000000000000000000033
:1019b400000000000a0000001c000000cc860000ab
:1019c400321400003214000002000000736e0000a4
:1019d40072000000ffff0000000000000000000093
:1019e4000000000000000000000000000a000000e9
:1019f4001d000000cf8600003414000034140000e1
:101a040002000000736e000072000000ffff00007f
:101a140000000000000000000000000000000000c2
:101a2400000000000a0000001e000000d286000032
:101a3400361400003614000002000000736e00002b
:101a440072000000ffff0000000000000000000022
:101a5400000000000000000000000000640000001e
:101a64001f000000da860000421400004214000047
:101a7400020000007372000072000000ffff00000b
:101a8400000000000000000000000000050000004d
:101a9400000000006400000020000000ef86000049
:101aa40040140000401400000200000073720000a3
:101ab40072000000ffff00000000000000000000b2
:101ac4000000000005000000000000000a00000003
:101ad40021000000018700003814000038140000c1
:101ae40002000000736e000072000000ffff00009f
:101af40000000000000000000000000000000000e2
:101b0400000000000a0000003200000014870000fa
:101b1400321300003213000002000000757200004e
:101b240072000000ffff0000000000000000000041
:101b3400000000000500000000000000010000009b
:101b4400330000001e87000034130000341300002b
:101b5400020000007572000072000000ffff000028
:101b6400000000000000000000000000050000006c
:101b7400000000000100000034000000288700007d
:101b840036130000361300000200000075720000d6
:101b940072000000ffff00000000000000000000d1
:101ba400000000000500000000000000010000002b
:101bb400350000003387000038130000381300009c
:101bc400020000007572000072000000ffff0000b8
:101bd40000000000000000000000000005000000fc
:101be4000000000001000000360000003e870000f5
:101bf4003a1300003a13000002000000757200005e
:101c040072000000ffff0000000000000000000060
:101c140000000000050000000000000001000000ba
:101c240037000000498700003c1300003c1300000b
:101c3400020000007572000072000000ffff000047
:101c4400000000000000000000000000050000008b
:101c5400000000000100000038000000548700006c
:101c64001e1300001e130000020000007572000025
:101c740072000000ffff00000000000000000000f0
:101c84000000000005000000000000000a00000041
:101c9400390000006b8700002013000020130000af
:101ca400020000007572000072000000ffff0000d7
:101cb400000000000000000000000000050000001b
:101cc400000000000a0000003a00000082870000c3
:101cd40022130000221300000200000075720000ad
:101ce40072000000ffff0000000000000000000080
:101cf4000000000005000000000000000a000000d1
:101d04003b0000009287000024130000241300000d
:101d1400020000007572000072000000ffff000066
:101d240000000000000000000000000005000000aa
:101d3400000000000a0000003c000000a287000030
:101d44001c1300001c130000020000007572000048
:101d540072000000ffff000000000000000000000f
:101d64000000000005000000000000000a00000060
:101d74002c010000bf870000bc130000bc1300004e
:101d840002000000626e000072000000ffff00000d
:101d9400000000000000000000000000000000003f
:101da40000000000010000002d010000cc870000ad
:101db40098130000981300000200000062720000f3
:101dc40072000000ffff000000000000000000009f
:101dd40000000000000000000000000001000000fe
:101de4002e010000da870000be130000be130000bd
:101df40002000000756e000072000000ffff00008a
:101e040000000000000000000000000000000000ce
:101e140000000000010000002f010000ed87000019
:101e2400ce130000ce13000002000000736e000009
:101e340072000000ff7f000000000000008000002e
:101e4400ffff00000000000000000000010000008f
:101e540030010000fb870000cc130000cc1300000d
:101e640002000000756e000072000000ffff000019
:101e7400000000000000000000000000000000005e
:101e8400000000000100000031010000148800007f
:101e94009613000096130000020000006272000016
:101ea40072000000ffff00000000000000000000be
:101eb4000000000005000000000000000100000018
:101ec40035010000208800009a1300009a130000d6
:101ed400020000007572000072000000ffff0000a5
:101ee40000000000000000000000000005000000e9
:101ef4000000000001000000360100002a880000f4
:101f0400c0130000c013000002000000756e000042
:101f140072000000ffff000000000000000000004d
:101f240000000000000000000000000001000000ac
:101f3400370100003f880000c2130000c2130000f4
:101f440002000000756e000072000000ffff000038
:101f5400000000000000000000000000000000007d
:101f64000000000001000000380100005488000057
:101f7400c4130000c413000002000000756e0000ca
:101f840072000000ffff00000000000000000000dd
:101f9400000000000000000000000000010000003c
:101fa4003901000069880000c6130000c613000050
:101fb40002000000756e000072000000ffff0000c8
:101fc400000000000000000000000000000000000d
:101fd40000000000010000003a0100007e880000bb
:101fe400c8130000c813000002000000756e000052
:101ff40072000000ffff000000000000000000006d
:1020040000000000000000000000000001000000cb
:102014003b01000093880000ae130000ae130000e3
:10202400020000007372000072000000ff7f0000d5
:102034000000000000800000ffff00000500000019
:1020440000000000010000003c010000ad88000019
:10205400b0130000b013000002000000737200000f
:1020640072000000ff7f00000000000000800000fc
:10207400ffff000005000000000000000100000058
:102084003d010000c7880000b2130000b213000035
:10209400020000007372000072000000ff7f000065
:1020a4000000000000800000ffff000005000000a9
:1020b40000000000010000003e010000e188000073
:1020c400b4130000b4130000020000007372000097
:1020d40072000000ff7f000000000000008000008c
:1020e400ffff0000050000000000000001000000e8
:1020f4003f010000fb880000b6130000b613000087
:10210400020000007372000072000000ff7f0000f4
:102114000000000000800000ffff00000500000038
:1021240000000000010000004001000015890000cb
:10213400ac130000ac130000020000007572000034
:1021440072000000ffff000000000000000000001b
:102154000000000005000000000000000100000075
:102164004101000028890000ca130000ca130000be
:1021740002000000756e000072000000ffff000006
:10218400000000000000000000000000000000004b
:102194000000000001000000420100003d89000031
:1021a400b8130000b81300000200000073720000ae
:1021b40072000000ff7f00000000000000800000ab
:1021c400ffff000005000000000000000100000007
:1021d4009001000057890000701400007014000082
:1021e400020000007572000072000000ffff000092
:1021f40000000000000000000000000000000000db
:102204000000000001000000910100005f8900004f
:1022140072140000721400000200000075720000c5
:1022240072000000ffff000000000000000000003a
:102234000000000000000000000000000100000099
:1022440092010000698900007614000076140000f1
:10225400020000007372000072000000ff7f0000a3
:102264000000000000800000ffff000000000000ec
:1022740000000000010000009301000070890000cc
:10228400781400007814000002000000737200004b
:1022940072000000ff7f00000000000000800000ca
:1022a400ffff00000000000000000000010000002b
:1022b40094010000778900007e1400007e14000061
:1022c400020000007572000072000000ffff0000b1
:1022d40000000000000000000000000005000000f5
:1022e4000000000001000000950100008789000043
:1022f400741400007414000002000000756e0000e5
:1023040072000000ffff0000000000000000000059
:1023140000000000000000000000000001000000b8
:10232400840300008f8900000414000004140000da
:10233400040000007572000072000000ffff00003e
:10234400ffff000000000000000000000500000086
:1023540000000000e8030000850300009c890000e1
:102364001a1400001a140000020000007572000024
:1023740072000000ffff00000000000000000000e9
:102384000000000005000000000000000100000043
:1023940086030000ae890000161400001614000025
:1023a400020000007572000072000000ffff0000d0
:1023b4000000000000000000000000000500000014
:1023c400000000000100000087030000b98900003c
:1023d40020000000200000000200000075720000d0
:1023e40072000000ffff0000000000000000000079
:1023f40000000000050000000000000001000000d3
:1024040088030000cd890000141400001414000097
:10241400020000007572000072000000ffff00005f
:1024240000000000000000000000000005000000a3
:10243400000000000100000089030000d8890000aa
:102444000814000008140000040000007572000065
:1024540072000000ffff0000ffff0000000000000a
:10246400000000000500000000000000e803000078
:102474008a030000e58900001c1400001c140000fd
:10248400020000007572000072000000ffff0000ef
:102494000000000000000000000000000500000033
:1024a40000000000010000008b030000f789000019
:1024b4000c1400000c1400000400000075720000ed
:1024c40072000000ffff0000ffff0000000000009a
:1024d400000000000500000000000000e803000008
:1024e4008c030000068a0000101400001014000081
:1024f400040000007572000072000000ffff00007d
:10250400ffff0000000000000000000005000000c4
:1025140000000000e80300008e030000158a00009c
:10252400e0020000e002000002000000627200000d
:1025340072000000ffff0000000000000000000027
:102544000000000005000000000000000100000081
:102554008f0300001b8a0000d4020000d402000094
:10256400020000006272000072000000ffff000021
:102574000000000000000000000000000500000052
:10258400000000000100000090030000218a000008
:10259400e6020000e6020000020000006272000091
:1025a40072000000ffff00000000000000000000b7
:1025b4000000000005000000000000000100000011
:1025c40091030000278a00009a1400009a14000066
:1025d400020000006272000072000000ffff0000b1
:1025e40000000000000000000000000005000000e2
:1025f400000000000100000092030000338a000084
:102604009c1400009c140000020000006272000090
:1026140072000000ffff0000000000000000000046
:1026240000000000000000000000000001000000a5
:10263400930300003e8a00009e1400009e140000d4
:10264400020000006272000072000000ffff000040
:102654000000000000000000000000000500000071
:102664000000000001000000950300004a8a0000f9
:10267400a0140000a0140000020000007572000005
:1026840072000000ffff00000000000000000000d6
:102694000000000005000000000000000100000030
:1026a40094030000548a0000b8140000b814000019
:1026b400020000006272000072000000ffff0000d0
:1026c4000000000000000000000000000000000006
:1026d4000000000001000000b6030000618a000051
:1026e4005614000056140000020000007572000029
:1026f40072000000ffff0000000000000000000066
:1027040000000000050000000000000001000000bf
:10271400b7030000718a0000581400005814000028
:1027240002000000756e000072000000ffff000050
:102734000000000000000000000000000000000095
:102744000000000001000000b8030000858a0000ba
:102754005a1400005a1400000200000075720000b0
:1027640072000000ffff00000000000000000000f5
:10277400000000000500000000000000010000004f
:10278400b90300009b8a00004a1400004a140000a8
:10279400020000006272000072000000ffff0000ef
:1027a4000000000000000000000000000500000020
:1027b4000000000001000000e3030000a68a0000fe
:1027c4005c8500005c85000002000000756f00005d
:1027d4006f000000ffff0000000000000000000088
:1027e400000000000500000000000000640000007c
:1027f400e4030000c08a0000be140000be14000000
:1028040002000000756f00006f000000ffff000071
:1028140000000000000000000000000005000000af
:102824000000000001000000e5030000c98a000068
:10283400be140000be14000002000000756f00000a
:102844006f000000ffff0000000000000000000017
:10285400000000000500000000000000010000006e
:10286400e6030000d58a0000be140000be14000078
:1028740002000000756e000072000000ffff0000ff
:102884000000000000000000000000000000000044
:102894000000000001000000e7030000dd8a0000e2
:1028a4005a8500005a85000002000000756f000080
:1028b4006f000000ffff00000000000000000000a7
:1028c400000000000500000000000000640000009b
:1028d40000000000e58a0000000000000000000085
:1028e400000000007372000072000000000000008d
:1028f40000000000000000000000000000000000d4
:10290400010000000100000000000000920100002e
:1029140024030000b604000047060000d9070000a5
:102924006a090000fb0a00008b0c00001b0e00006b
:10293400ab0f000039110000c7120000551400004d
:10294400e11500006d170000f8180000821a00005d
:102954000b1c0000931d0000191f00009f200000a5
:1029640023220000a623000027250000a72600003c
:1029740026280000a32900001e2b0000982c00002c
:10298400102e0000862f0000fb3000006d32000086
:10299400de3300004d350000b93600002438000055
:1029a4008c390000f23a0000563c0000b73d0000ac
:1029b400163f000073400000cd4100002543000095
:1029c4007a440000cc4500001c4700006948000020
:1029d400b3490000fa4a00003f4c0000804d00005b
:1029e400bf4e0000fa4f000033510000685200004f
:1029f4009a530000c9540000f45500001d5700000c
:102a04004258000063590000815a00009c5b00009a
:102a1400b35c0000c65d0000d65e0000e25f00000b
:102a2400eb600000f0610000f1620000ee63000062
:102a3400e7640000dd650000ce660000bc670000ae
:102a4400a56800008b6900006c6a00004a6b0000f6
:102a5400236c0000f86c0000c96d0000956e000046
:102a64005e6f000022700000e17000009d710000a4
:102a74005472000006730000b57300005e74000019
:102a840003750000a475000040760000d8760000ad
:102a94006b770000f9770000837800000879000064
:102aa40089790000047a00007c7a0000ee7a000044
:102ab4005c7b0000c47b0000297c0000887c000053
:102ac400e27c0000387d0000897d0000d57d000097
:102ad4001c7e00005e7e00009c7e0000d47e000010
:102ae400087f0000377f0000617f0000867f0000c0
:102af400a67f0000c17f0000d77f0000e87f0000b0
:102b0400f57f0000fc7f0000fe7f0000fc7f0000da
:102b1400f57f0000e87f0000d77f0000c17f000040
:102b2400a67f0000867f0000617f0000377f0000e1
:102b3400087f0000d47e00009c7e00005e7e0000c2
:102b44001c7e0000d57d0000897d0000387d0000da
:102b5400e27c0000887c0000297c0000c47b00002b
:102b64005c7b0000ee7a00007c7a0000047a0000ae
:102b7400897900000879000083780000f977000063
:102b84006b770000d876000040760000a475000042
:102b9400037500005e740000b57300000673000046
:102ba400547200009d710000e1700000227000006a
:102bb4005e6f0000956e0000c96d0000f86c0000a7
:102bc400236c00004a6b00006c6a00008b690000f3
:102bd400a5680000bc670000ce660000dd6500004b
:102be400e7640000ee630000f1620000f0610000a1
:102bf400eb600000e25f0000d65e0000c65d0000ee
:102c0400b35c00009c5b0000815a00006359000023
:102c1400425800001d570000f4550000c95400003c
:102c24009a5300006852000033510000fa4f00002c
:102c3400bf4e0000804d00003f4c0000fa4a0000e7
:102c4400b3490000694800001c470000cc4500005f
:102c54007a44000025430000cd4100007340000089
:102c6400163f0000b73d0000563c0000f23a000059
:102c74008c39000024380000b93600004d350000be
:102c8400de3300006d320000fb300000862f0000b0
:102c9400102e0000982c00001e2b0000a329000019
:102ca40026280000a726000027250000a6230000f0
:102cb400232200009f200000191f0000931d000024
:102cc4000b1c0000821a0000f81800006d170000a9
:102cd400e115000055140000c7120000391100006e
:102ce400ab0f00001b0e00008b0c0000fb0a000061
:102cf4006a090000d907000047060000b604000076
:102d04002403000092010000000000006efe000099
:102d1400dcfc00004afb0000b9f9000027f80000c1
:102d240096f6000005f5000075f30000e5f10000db
:102d340055f00000c7ee000039ed0000abeb0000d9
:102d44001fea000093e8000008e700007ee50000a9
:102d5400f5e300006de20000e7e0000061df000041
:102d6400dddd00005adc0000d9da000059d900008a
:102d7400dad700005dd60000e2d4000068d300007a
:102d8400f0d100007ad0000005cf000093cd000000
:102d940022cc0000b3ca000047c90000dcc7000011
:102da40074c600000ec50000aac3000049c200009a
:102db400eac000008dbf000033be0000dbbc000091
:102dc40086bb000034ba0000e4b8000097b70000e6
:102dd4004db6000006b50000c1b3000080b200008b
:102de40041b1000006b00000cdae000098ad000077
:102df40066ac000037ab00000caa0000e3a800009a
:102e0400bea700009da600007fa5000064a40000ea
:102e14004da300003aa200002aa100001ea0000059
:102e2400159f0000109e00000f9d0000129c0000e2
:102e3400199b0000239a0000329900004498000076
:102e44005b9700007596000094950000b69400000e
:102e5400dd93000008930000379200006b9100009e
:102e6400a2900000de8f00001f8f0000638e000020
:102e7400ac8d0000fa8c00004b8c0000a28b00008b
:102e8400fd8a00005c8a0000c089000028890000d7
:102e940095880000078800007d870000f886000000
:102ea40077860000fc850000848500001285000000
:102eb400a48400003c840000d783000078830000d1
:102ec4001e830000c8820000778200002b8200006d
:102ed400e4810000a2810000648100002c810000d4
:102ee400f8800000c98000009f8000007a80000004
:102ef4005a8000003f8000002980000018800000f4
:102f04000b800000048000000280000004800000a8
:102f14000b80000018800000298000003f80000022
:102f24005a8000007a8000009f800000c980000061
:102f3400f88000002c81000064810000a281000060
:102f4400e48100002b82000077820000c882000028
:102f54001e83000078830000d78300003c840000b7
:102f6400a48400001285000084850000fc85000014
:102f740077860000f88600007d870000078800003f
:102f84009588000028890000c08900005c8a000040
:102f9400fd8a0000a28b00004b8c0000fa8c00001c
:102fa400ac8d0000638e00001f8f0000de8f0000d8
:102fb400a29000006b91000037920000089300007b
:102fc400dd930000b694000094950000759600000f
:102fd4005b9700004498000032990000239a000097
:102fe400199b0000129c00000f9d0000109e000021
:102ff400159f00001ea000002aa100003aa20000b4
:103004004da3000064a400007fa500009da600005d
:10301400bea70000e3a800000caa000037ab000024
:1030240066ac000098ad0000cdae000006b0000014
:1030340041b1000080b20000c1b3000006b5000039
:103044004db6000097b70000e4b8000034ba0000a1
:1030540086bb0000dbbc000033be00008dbf000057
:10306400eac0000049c20000aac300000ec5000067
:1030740074c60000dcc7000047c90000b3ca0000e2
:1030840022cc000093cd000005cf00007ad00000d0
:10309400f0d1000068d30000e2d400005dd6000047
:1030a400dad7000059d90000d9da00005adc000050
:1030b400dddd000061df0000e7e000006de20000fc
:1030c400f5e300007ee5000008e7000093e8000057
:1030d4001fea0000abeb000039ed0000c7ee000072
:1030e40055f00000e5f1000075f3000005f500005f
:1030f40096f6000027f80000b9f900004afb00002a
:10310400dcfc00006efe000000000000d4020000a1
:1031140000040000e6040000a805000053060000b7
:10312400ed0600007b070000000800007c0800009a
:10313400f108000061090000cc090000320a000017
:10314400950a0000f40a0000500b0000a90b0000cf
:10315400000c0000540c0000a60c0000f60c00004b
:10316400440d0000900d0000db0d0000240e000053
:103174006c0e0000b20e0000f70e00003b0f0000c2
:103184007d0f0000bf0f0000001000003f10000082
:103194007e100000bb100000f81000003411000085
:1031a4006f110000a9110000e31100001c120000bf
:1031b400541200008c120000c2120000f912000028
:1031c4002e1300006413000098130000cc130000b9
:1031d400001400003214000065140000971400006d
:1031e400c8140000f91400002a1500005a15000044
:1031f4008a150000b9150000e81500001716000034
:103204004516000073160000a0160000cd1600003d
:10321400fa16000026170000521700007e1700005f
:10322400aa170000d5170000001800002a18000093
:10323400541800007e180000a8180000d1180000df
:10324400fa180000231900004c190000741900003a
:103254009c190000c4190000ec190000131a0000a6
:103264003a1a0000611a0000881a0000ae1a000021
:10327400d51a0000fb1a0000211b0000461b0000a9
:103284006c1b0000911b0000b61b0000db1b000040
:10329400001c0000241c0000481c00006c1c0000e2
:1032a400901c0000b41c0000d81c0000fb1c000093
:1032b4001e1d0000411d0000641d0000871d00004c
:1032c400aa1d0000cc1d0000ee1d0000111e000010
:1032d400331e0000541e0000761e0000981e0000dd
:1032e400b91e0000da1e0000fb1e00001c1f0000b7
:1032f4003d1f00005e1f00007e1f00009f1f000096
:10330400bf1f0000df1f0000002000001f2000007e
:103314003f2000005f2000007f2000009e2000006e
:10332400bd200000dd200000fc2000001b21000067
:103334003921000058210000772100009521000068
:10334400b4210000d2210000f02100000f2200006f
:103354002d2200004a22000068220000862200007c
:10336400a4220000c1220000df220000fc22000091
:1033740019230000362300005323000070230000ab
:103384008d230000aa230000c6230000e3230000cd
:10339400002400001c2400003824000054240000f1
:1033a400712400008d240000a9240000c52400001d
:1033b400e0240000fc240000182500003325000050
:1033c4004f2500006a25000085250000a125000086
:1033d400bc250000d7250000f22500000d260000c2
:1033e40028260000432600005d2600007826000001
:1033f40093260000ad260000c8260000e226000047
:10340400fc26000016270000312700004b2700008f
:10341400652700007f27000099270000b2270000dd
:10342400cc270000e627000000280000192800002f
:10343400332800004c280000652800007f28000085
:1034440098280000b1280000ca280000e3280000e2
:10345400fc280000152900002e290000472900003f
:10346400602900007929000091290000aa290000a0
:10347400c2290000db290000f32900000c2a000007
:10348400242a00003c2a0000542a00006d2a00006f
:10349400852a00009d2a0000b52a0000cd2a0000dc
:1034a400e52a0000fd2a0000142b00002c2b00004c
:1034b400442b00005b2b0000732b00008b2b0000bf
:1034c400a22b0000b92b0000d12b0000e82b000038
:1034d400002c0000172c00002e2c0000452c0000ae
:1034e4005c2c0000732c00008a2c0000a12c00002e
:1034f400b82c0000cf2c0000e62c0000fd2c0000ae
:10350400132d00002a2d0000412d0000572d00002e
:103514006e2d0000842d00009b2d0000b12d0000b5
:10352400c82d0000de2d0000f42d00000b2e00003d
:10353400212e0000372e00004d2e0000632e0000c7
:10354400792e00008f2e0000a52e0000bb2e000057
:10355400d12e0000e72e0000fd2e0000132f0000e6
:10356400282f00003e2f0000542f0000692f000078
:103574007f2f0000942f0000aa2f0000bf2f00000f
:10358400d52f0000ea2f00000030000015300000a5
:103594002a3000003f300000553000006a3000003f
:1035a4007f30000094300000a9300000be300000dd
:1035b400d3300000e8300000fd300000123100007c
:1035c400273100003b31000050310000653100001c
:1035d4007a3100008e310000a3310000b8310000c0
:1035e400cc310000e1310000f53100000a32000066
:1035f4001e32000033320000473200005b3200000c
:10360400703200008432000098320000ac320000b6
:10361400c1320000d5320000e9320000fd32000062
:103624001133000025330000393300004d3300000e
:103634006133000075330000893300009d330000be
:10364400b0330000c4330000d8330000ec33000072
:103654000034000013340000273400003a34000022
:103664004e340000623400007534000089340000d8
:103674009c340000b0340000c3340000d634000091
:10368400ea340000fd340000103500002435000049
:10369400373500004a3500005d3500007135000003
:1036a4008435000097350000aa350000bd350000c0
:1036b400d0350000e3350000f6350000093600007f
:1036c4001c3600002f36000042360000553600003c
:1036d400673600007a3600008d360000a036000000
:1036e400b2360000c5360000d8360000eb360000c4
:1036f400fd36000010370000223700003537000087
:10370400473700005a3700006c3700007f3700004d
:1037140091370000a4370000b6370000c937000015
:10372400db370000ed3700000038000012380000dd
:103734002438000036380000483800005b380000a8
:103744006d3800007f38000091380000a338000075
:10375400b5380000c7380000d9380000eb38000045
:10376400fd3800000f390000213900003339000012
:103774004539000057390000693900007a390000e2
:103784008c3900009e390000b0390000c2390000b5
:10379400d3390000e5390000f7390000083a000089
:1037a4001a3a00002c3a00003d3a00004f3a00005b
:1037b400603a0000723a0000833a0000953a000033
:1037c400a63a0000b83a0000c93a0000db3a00000b
:1037d400ec3a0000fd3a00000f3b0000203b0000e3
:1037e400313b0000433b0000543b0000653b0000bc
:1037f400763b0000883b0000993b0000aa3b000098
:10380400bb3b0000cc3b0000dd3b0000ee3b000076
:10381400003c0000113c0000223c0000333c00004e
:10382400443c0000553c0000663c0000773c00002e
:10383400873c0000983c0000a93c0000ba3c000012
:10384400cb3c0000dc3c0000ed3c0000fd3c0000f3
:103854000e3d00001f3d0000303d0000403d0000d3
:10386400513d0000623d0000723d0000833d0000b8
:10387400943d0000a43d0000b53d0000c63d00009d
:10388400d63d0000e73d0000f73d0000083e000083
:10389400183e0000293e0000393e00004a3e000068
:1038a4005a3e00006a3e00007b3e00008b3e000052
:1038b4009c3e0000ac3e0000bc3e0000cd3e00003b
:1038c400dd3e0000ed3e0000fd3e00000e3f000026
:1038d4001e3f00002e3f00003e3f00004f3f00000f
:1038e4005f3f00006f3f00007f3f00008f3f0000fc
:1038f4009f3f0000af3f0000bf3f0000cf3f0000ec
:10390400df3f0000ef3f000000000000a8050000ba
:1039140000080000cc090000500b0000a60c0000b9
:10392400db0d0000f70e000000100000f81000008e
:10393400e3110000c2120000981300006514000097
:103944002a150000e8150000a01600005217000018
:1039540000180000a81800004c190000ec19000021
:10396400881a0000211b0000b61b0000481c000040
:10397400d81c0000641d0000ee1d0000761e00002f
:10398400fb1e00007e1f0000002000007f200000be
:10399400fc20000077210000f021000068220000d4
:1039a400df22000053230000c62300003824000057
:1039b400a92400001825000085250000f225000038
:1039c4005d260000c826000031270000992700006a
:1039d4000028000065280000ca2800002e290000e5
:1039e40091290000f3290000542a0000b52a0000a0
:1039f400142b0000732b0000d12b00002e2c000090
:103a04008a2c0000e62c0000412d00009b2d0000b4
:103a1400f42d00004d2e0000a52e0000fd2e000008
:103a2400542f0000aa2f0000003000005530000081
:103a3400a9300000fd30000050310000a331000027
:103a4400f53100004732000098320000e9320000ee
:103a54003933000089330000d833000027340000d4
:103a640075340000c3340000103500005d350000db
:103a7400aa350000f6350000423600008d360000fd
:103a8400d8360000223700006c370000b63700003b
:103a9400003800004838000091380000d938000090
:103aa4002139000069390000b0390000f7390000fd
:103ab4003d3a0000833a0000c93a00000f3b000081
:103ac400543b0000993b0000dd3b0000223c000019
:103ad400663c0000a93c0000ed3c0000303d0000c5
:103ae400723d0000b53d0000f73d0000393e000086
:103af4007b3e0000bc3e0000fd3e00003e3f000057
:103b04007f3f0000bf3f0000004000003f40000036
:103b14007f400000be400000fe4000003c41000029
:103b24007b410000ba410000f84100003642000029
:103b340073420000b1420000ee4200002b4300003b
:103b440068430000a5430000e14300001e44000058
:103b54005a44000095440000d14400000c45000084
:103b64004845000083450000be450000f8450000bc
:103b7400334600006d460000a7460000e146000001
:103b84001b470000544700008d470000c747000052
:103b9400004800003848000071480000a9480000af
:103ba400e24800001a490000524900008a49000016
:103bb400c1490000f9490000304a0000674a00008a
:103bc4009e4a0000d54a00000b4b0000424b000007
:103bd400784b0000ae4b0000e54b00001a4c00008f
:103be400504c0000864c0000bb4c0000f14c00001f
:103bf400264d00005b4d0000904d0000c44d0000b8
:103c0400f94d00002d4e0000624e0000964e00005b
:103c1400ca4e0000fe4e0000324f0000654f000007
:103c2400994f0000cc4f00000050000033500000ba
:103c34006650000099500000cb500000fe50000078
:103c4400305100006351000095510000c75100003d
:103c5400f95100002b5200005d5200008f52000009
:103c6400c0520000f25200002353000054530000dd
:103c740085530000b6530000e753000018540000b9
:103c84004954000079540000a9540000da5400009b
:103c94000a5500003a5500006a5500009a55000084
:103ca400ca550000fa550000295600005956000074
:103cb40088560000b7560000e6560000165700006c
:103cc4004557000073570000a2570000d157000069
:103cd400005800002e5800005c5800008b5800006b
:103ce400b9580000e7580000155900004359000076
:103cf400715900009f590000cc590000fa59000086
:103d0400275a0000555a0000825a0000af5a00009a
:103d1400dc5a0000095b0000365b0000635b0000b6
:103d2400905b0000bd5b0000e95b0000165c0000d6
:103d3400425c00006f5c00009b5c0000c75c0000fc
:103d4400f35c00001f5d00004b5d0000775d000028
:103d5400a35d0000ce5d0000fa5d0000265e000059
:103d6400515e00007c5e0000a85e0000d35e00008f
:103d7400fe5e0000295f0000545f00007f5f0000ca
:103d8400aa5f0000d55f0000006000002a60000008
:103d9400556000007f600000aa600000d46000004d
:103da400fe60000028610000526100007d61000097
:103db400a7610000d0610000fa61000024620000e5
:103dc4004e62000077620000a1620000ca62000037
:103dd400f46200001d63000047630000706300008c
:103de40099630000c2630000eb63000014640000e8
:103df4003d640000666400008e640000b764000047
:103e0400e0640000086500003165000059650000a9
:103e140082650000aa650000d2650000fa65000012
:103e2400236600004b660000736600009b6600007a
:103e3400c3660000ea660000126700003a670000eb
:103e44006167000089670000b1670000d86700005f
:103e540000680000276800004e68000075680000d4
:103e64009d680000c4680000eb680000126900004f
:103e7400396900006069000086690000ad690000ce
:103e8400d4690000fb690000216a0000486a000050
:103e94006e6a0000956a0000bb6a0000e26a0000d6
:103ea400086b00002e6b0000546b00007a6b00005e
:103eb400a16b0000c76b0000ed6b0000126c0000ea
:103ec400386c00005e6c0000846c0000aa6c00007a
:103ed400cf6c0000f56c00001a6d0000406d00000e
:103ee400656d00008b6d0000b06d0000d66d0000a4
:103ef400fb6d0000206e0000456e00006a6e00003d
:103f04008f6e0000b46e0000d96e0000fe6e0000db
:103f1400236f0000486f00006d6f0000926f000077
:103f2400b66f0000db6f000000700000247000001a
:103f3400497000006d70000091700000b6700000c0
:103f4400da700000fe700000237100004771000069
:103f54006b7100008f710000b3710000d771000015
:103f6400fb7100001f7200004372000067720000c2
:103f74008a720000ae720000d2720000f572000076
:103f8400197300003d730000607300008473000027
:103f9400a7730000ca730000ee73000011740000e0
:103fa40034740000587400007b7400009e74000098
:103fb400c1740000e4740000077500002a75000055
:103fc4004d7500007075000093750000b675000013
:103fd400d8750000fb7500001e76000041760000d5
:103fe4006376000086760000a8760000cb76000099
:103ff400ed7600001077000032770000547700005f
:104004007777000099770000bb770000dd77000028
:1040140000780000227800004478000066780000f0
:1040240088780000aa780000cc780000ee780000c0
:104034000f79000031790000537900007579000090
:1040440096790000b8790000da790000fb79000065
:104054001d7a00003e7a0000607a0000817a000038
:10406400a37a0000c47a0000e57a0000077b000010
:10407400287b0000497b00006b7b00008c7b0000e8
:10408400ad7b0000ce7b0000ef7b0000107c0000c5
:10409400317c0000527c0000737c0000947c0000a2
:1040a400b57c0000d57c0000f67c0000177d000084
:1040b400387d0000587d0000797d00009a7d000065
:1040c400ba7d0000db7d0000fb7d00001c7e00004b
:1040d4003c7e00005d7e00007d7e00009e7e000030
:1040e400be7e0000de7e0000fe7e00001f7f00001a
:1040f4003f7f00005f7f00007f7f00009f7f000004
:08410400bf7f0000df7f000017
:020000040000fa
:10410c00889fbe008a9fbe008c1f78000004780038
:10411c00f90e07008004780050978800a214d5008f
:10412c00180050000000400060978800d294800076
:10413c0001003b000000ea00820f50000100360035
:10414c009e14a800a414d500980090000100500003
:10415c0080004000719788000100780001003b004e
:10416c000100ea00800f5100010031009e14a800ec
:10417c0060978000808040000100ea00c0978800b2
:10418c0001003d0001007800800f5100010031005a
:10419c009e14a8006097800010988800719e2400df
:1041ac009c0a070000047800c0978000719e2400d0
:1041bc00980a07000000d0000800400020988800f2
:1041cc00000024000904500088057800e0a22000bb
:1041dc00800f54000b003c00105d2f00800f54002a
:1041ec00080034004032200000c0b9004809dd004e
:1041fc004800de0000007100c888de0080007800f6
:10420c00040037004740de000000400061482900f0
:10421c00e0807800109880007e0a07000006780085
:10422c0009057800e0a22000808f54000b003c00b0
:10423c00105d2f00808f54000800340040322000a5
:10424c0000c8b9004809dd004800de00000071001c
:10425c00c888de0080007800040037004748de0084
:10426c000000400061482900e08078002098800020
:10427c00680a07000000460030988800e0a2200081
:10428c00808f55000b003c00105d2f00808f550077
:10429c00080034004032200000d8b9004809dd0085
:1042ac004800de0000007100c888de008000780045
:1042bc00040037004740de00000040006148290040
:1042cc00e080780020988000520a070000047800f3
:1042dc00e0a22000800f55000b003c00105d2f0069
:1042ec00800f5500080034004032200000d0b90087
:1042fc004809dd004800de0000007100c888de00bf
:10430c0080007800040037004748de0000004000c1
:10431c0061482900e0807800109880003d0a070071
:10432c00000254004498880032988000cf91de003f
:10433c00b0938000c193800002004000838048004d
:10434c00b0938800c1938800cfa2de0090938000c8
:10435c00a193800004004000858048009093880061
:10436c00a19388000210b8000391b900020141002a
:10437c00810041000421b80005a2b90004024200ea
:10438c00830142000000410081804900ce090700f2
:10439c000227210092005000f00e2000008ab90084
:1043ac007093800081938000040040008580480059
:1043bc00709388008193880012017800929888008d
:1043cc00a02e21004f0678004f05be004f04be0002
:1043dc0000000600889fbe008a9fbe008c9fbe0016
:1043ec008e1f780000047800010778001005780013
:1043fc0062a580000201d100310090000200500043
:10440c004004980032a580000201d10041039000c5
:10441c00020353005604980000014300020c98005c
:10442c00020250005755250007a2b900c128dd0033
:10443c004f22de0004827000cfaade00140c98001c
:10444c00000053000780b900c109dd004f00de00f9
:10445c0000807100cf88de00200c9800060151000e
:10446c000791b9004118dd004f11de000201700008
:10447c00cf99de00320c980004149800719e240031
:10448c0004007800e3090700280b900006034300a2
:10449c00cfb3de00d13c29000132b800d23c290058
:1044ac0002b9b9008502410040aade00cfa2de00ad
:1044bc000400400010149800000024008a045000ee
:1044cc0009067800e0a22000808f54000b003c000d
:1044dc00105d2f00808f5400080034004032200003
:1044ec0000c8b9004809dd004800de00000071007a
:1044fc00c888de0080007800040037004748de00e2
:10450c000000400061482900e0807800081090000d
:10451c00c0090700800678008a057800e0a2200018
:10452c00800f55000b003c00105d2f00800f5500d4
:10453c00080034004032200000d0b900c809dd006a
:10454c004800de0000807100c888de008000780022
:10455c00040037004750de0000004000614829008d
:10456c00e080780018109000aa090700008046002f
:10457c0020149800e0a22000800f56000b003c0095
:10458c00105d2f00800f56000800340040322000d0
:10459c0000e0b9004809dd004800de0000007100b1
:1045ac00c888de0080007800040037004748de0031
:1045bc000000400061482900e0807800181090004d
:1045cc009409070080047800e0a22000808f550039
:1045dc000b003c00105d2f00808f5500080034004c
:1045ec004032200000d8b900c809dd004800de00c8
:1045fc0000807100c888de0080007800040037005d
:10460c004750de000000400061482900e08078003f
:10461c00081090007f0907000080540030149800a7
:10462c0028109000cf80de00d2938000e3938000ae
:10463c000001410081814900d2938800e3938800f6
:10464c0038109000cf80de00f2938000039480003d
:10465c000001410081814900f29388000394880095
:10466c0028119000cf91de0038129000cfa2de000e
:10467c000210b8000391b900020141008100410011
:10468c000421b80005a2b9000402420083014200d3
:10469c0000004100818049000b090700501498006c
:1046ac006101b90010948000219480000200400048
:1046bc00838048001094880021948800a814d500a9
:1046cc00600498006101b9005094800061948000ee
:1046dc000200400083804800509488006194880058
:1046ec00e80090000100e00001003d008100ea00bc
:1046fc0090948000808f5000020036009e74a800b9
:10470c0006003700a0948000808f5000020031001a
:10471c009e94a800010037009e94a90051a580002a
:10472c008100d1002e0090000080500030049800d1
:10473c006101b900709480008194800002004000f7
:10474c00838048007094880081948800b8009000a1
:10475c000100e00001003d008100ea00b0948000ff
:10476c00808f5000010036009e54a8004f0778003f
:10477c004f06be004f05be004f04be0000000600f1
:10478c00889fbe008a9fbe000005be008041eb00e2
:10479c0032012000509480006194800009090700c8
:1047ac00219680001b090700600598006044b80042
:1047bc0058948800699488008041eb0032012000f5
:1047cc007094800081948000fe0807004196800060
:1047dc001009070070059800789488008994880067
:1047ec0013c0b30032012000d0938000e19380000d
:1047fc00f4080700000d7800d8938800e99388002e
:10480c0013c0b30032012000f093800001948000ab
:10481c00ec08070010059800f893880009948800ac
:10482c001a017800cf91de001a029000cfa2de00b0
:10483c000210b8000391b90002014100810041004f
:10484c000421b80005a2b900040242008301420011
:10485c0000004100818049009b0807006103b900fa
:10486c0070b62b000031b8000302430000b8b90049
:10487c00800142004099de00cf91de0032059800a5
:10488c008428210014015100909921000090b90056
:10489c0032948000439480000001410081814900e2
:1048ac00329488004394880051968000140078005c
:1048bc00d8080700400598004b129000cfa2de00ec
:1048cc0032db2d000220b80002a9b90081004100a2
:1048dc008041eb0042502b00ba0807006196800023
:1048ec00cc080700500598004f05be004f04be00d1
:1048fc0000000600439580000300e0003400320005
:10490c0012a580000201d1005095800061958000b5
:10491c0002004000e08048005095880061958800b6
:10492c0022a580000201d100709580008195800045
:10493c0002004000e0804800709588008195880056
:10494c0032a580000201d10090958000a1958000d5
:10495c0002004000e080480090958800a1958800f6
:10496c0042a580000201d100b0958000c195800065
:10497c0002004000e0804800b0958800c195880096
:10498c0052a580000201d100d0958000e1958000f5
:10499c0002004000e0804800d0958800e195880036
:1049ac0062a580000201d100f09580000196800084
:1049bc0002004000e0804800f095880001968800d5
:1049cc000300e9004095880010c0b3003a0037009e
:1049dc0050958000619580004509dd004b00de009c
:1049ec0000007100cb08de003099880070958000c3
:1049fc00819580004509dd004b00de000000710050
:104a0c00cb08de004099880090958000a19580002d
:104a1c004509dd004b00de0000007100cb08de0014
:104a2c0060998800b0958000c19580004509dd0033
:104a3c004b00de0000007100cb08de00809988007e
:104a4c00d0958000e19580004509dd004b00de002b
:104a5c0000007100cb08de0050998800f0958000b2
:104a6c00019680004509dd004b00de00000071005e
:104a7c00cb08de00709988006000b8005095880063
:104a8c0061958800709588008195880090958800c4
:104a9c00a1958800b0958800c1958800d0958800b4
:104aac00e1958800f0958800019688000080200030
:104abc00409588000040eb000080fb0000000600e1
:104acc00881f78008a9fbe00a214d500cf80de001c
:104adc0063ee070002002400c359240046ef0700d0
:104aec002aef07004109dd004f00de0000007100d5
:104afc00cf08de0090998800a414d500cf80de008a
:104b0c0057ee070002002400c35924003aef0700b7
:104b1c001eef07004109dd004f00de0000007100b0
:104b2c00cf08de00a0998800a614d500cf80de0047
:104b3c004bee070002002400c35924002eef07009f
:104b4c0012ef07004109dd004f00de00000071008c
:104b5c00cf08de00b0998800a814d500cf80de0005
:104b6c003fee070002002400c359240022ef070087
:104b7c0006ef07004109dd004f00de000000710068
:104b8c00cf08de00c0998800aa14d500cf80de00c3
:104b9c0033ee070002002400c359240016ef07006f
:104bac00faee07004109dd004f00de000000710045
:104bbc00cf08de00d0998800ac14d500cf80de0081
:104bcc0027ee070002002400c35924000aef070057
:104bdc00eeee07004109dd004f00de000000710021
:104bec00cf08de00e0998800209680006105b800af
:104bfc00f8ff2700a09680000800b8000a01be004c
:104c0c0031ef070090948800b09680000800b8003f
:104c1c000a01be002cef0700a0948800c09680000b
:104c2c000800b800429680000300200026ef070021
:104c3c00b0948800d09680000800b800529680008e
:104c4c000300200020ef0700c0948800e09680004d
:104c5c000800b80062968000030020001aef0700dd
:104c6c00d09488004f05be004f0478000000060069
:104c7c000400fa00889fbe008a9fbe008c1f78003b
:104c8c002c9680006164b800faff2700a096800083
:104c9c000a00b8000801be000bef070090948800d2
:104cac00b09680000a00b8000801be0006ef0700ad
:104cbc00a09488004b968000c09680000a00b80033
:104ccc006159b80000ef0700b0948800d0968000be
:104cdc000a00b800529680006112b80094bf9f0081
:104cec00a5bf9f000401be00f7ee0700c09488002a
:104cfc00e09680000a00b800629680006114b8004b
:104d0c000801be00f0ee0700d0948800080578007a
:104d1c0008007800de12bc000202be006044b8003d
:104d2c00823e2000030020000400be00f6ee0700c7
:104d3c00e09488000a007800e012bc000202be0079
:104d4c00823e2000030020000400be00eeee0700af
:104d5c00f09488001fbd97000a007800e212bc0096
:104d6c000202be00823e2000030020000400be00b0
:104d7c00e5ee0700109588000a007800e412bc00ec
:104d8c000202be00823e2000030020000400be0090
:104d9c00ddee0700209588000c007800e612bc00c0
:104dac000202be00823e2000030020000400be0070
:104dbc00d5ee0700309588000b007800e812bc0097
:104dcc000202be00823e2000030020000400be0050
:104ddc00cdee0700009588005895880069958800ed
:104dec00789588008995880098958800a995880001
:104dfc00b8958800c9958800d8958800e9958800f1
:104e0c00f89588000996880000802000409588005d
:104e1c004f0678004f05be004f04be000080fa001c
:104e2c0000000600b09780004380de000000060002
:104e3c00b2978000cf91de00d03c29000012b80060
:104e4c000098b900850240004028de0001002000d7
:104e5c004380de0000000600b2978000cf91de0098
:104e6c00a0aa2a000012b8000098b90085024000e0
:104e7c004028de00010020004380de000000060018
:104e8c00d19f800010072000808f5000310032002d
:104e9c0009003e007a005000808f50003300320031
:104eac0071004000808f50001e0032000100e000b5
:104ebc000b00320033003700e0072000808f5000d9
:104ecc001200320073004000808f50001b00320033
:104edc0079005000808f50002a003a0005003700fe
:104eec00c03e2100290007000080fb00d09f8800f5
:104efc0025003700c03e2100400007000004e00000
:104f0c0021003a00fa33ef001f003700c03e2100a9
:104f1c008a0007000004e0001b003a00fa33ef009f
:104f2c0019003700c03e2100050107000004e00015
:104f3c0015003a00fa33ef0013003700c03e210091
:104f4c00490107000004e0000f003a00fa33ef00bb
:104f5c000d003700c03e21009a0107000004e0005c
:104f6c0009003a00fa33ef0007003700c03e210079
:104f7c00290207000004e00003003a00fa33ef00b6
:104f8c0001003700fa33ef0000000600881f78009c
:104f9c0000047800450807000004e000140032000b
:104fac00ea4f50000f003a0008007800450807004f
:104fbc0091002000080078004a02070000c0ea00b7
:104fcc0098489000814f500009003a0090cab300f5
:104fdc00984f100006003a00edd3bf000080fb0094
:104fec00040037004a0807000000eb0001003700fe
:104ffc000000eb004f04780000000600889fbe0004
:10500c008a9fbe008c9fbe0000057800909e800099
:10501c000000e00003003200e10f500040003a00b5
:10502c00370037002d0e07000100200066044000f9
:10503c00e0844800270e0700800678000000e0009e
:10504c000b0032000006eb008bae28001b00780032
:10505c008fee07000000e80000044400e0844c00e0
:10506c000c06e800fc8545008c8f5600f7ff3a00d3
:10507c0062014400e0814c0090cab300004d7800fe
:10508c0080c7b300104598000040eb002045980005
:10509c0020c0b30030459800404598004818de0009
:1050ac0001002000504598004018de00010020004f
:1050bc0060459800481add004810de0000007200c0
:1050cc00c818de0070459800024d98009100200031
:1050dc000a00780003020700809e880000c0ea00e6
:1050ec00104d9800a10020000a0078000c02070067
:1050fc0010002000909e8800800078000a00370085
:10510c000a020700110020000004e00006003a002b
:10511c000000eb00909e88008000780002003700b1
:10512c00d233ef0011002000010078004f06be00c2
:10513c004f05be004f04be0000000600889fbe0055
:10514c0000047800d09e8000e30f50003b0032003a
:10515c0004003e00e10f50002300320029003e0005
:10516c0008003700e50f5000570032003d003900b1
:10517c00e60f50005b003200e70f50006a003a0067
:10518c006300370090cab300004c7800e0c7b3004e
:10519c0010449800664050002044980060c5b3004d
:1051ac003044980040c3b3004044980020c1b30081
:1051bc0050449800d833ef006100200008007800bc
:1051cc00c8010700c09e880000c0ea00104c98007f
:1051dc006100200008007800d101070010002000b9
:1051ec00d09e880054003700d00107000004e00076
:1051fc0050003a0020002000d09e880010002000b3
:10520c004d00370069ae2800b40d0700000478008b
:10521c008000780009007800b2010700d833b40090
:10522c008800780009007800bd01070030002000dc
:10523c00d09e8800100020003f003700bb01070003
:10524c000004e0003b003a0040002000d09e8800a3
:10525c00d633ef009f0d0700a09e880010002000a1
:10526c0035003700b19e8000a09e8000808f5000da
:10527c00110031007c08b9000080e80062ae280003
:10528c00600479000800780001ee07008004e80053
:10529c000800be0093010700d833b4000800be001c
:1052ac009f01070050002000d09e8800d633ec00f0
:1052bc00100020002000370060002000d09e8800e5
:1052cc00100020001c003700980107000004e000cb
:1052dc0018003a0040002000d09e880010002000ea
:1052ec0015003700c09e8000004c78004800de009e
:1052fc001044980021002000080078008801070065
:10530c0070002000d09e8800100020000a0037009a
:10531c00860107000004e00006003a000000eb00e4
:10532c00d09e880004003700da33ef001000200014
:10533c0001003700100020004f04be0000000600e2
:10534c00881f780000047800e09e80000000e000d8
:10535c0003003200e10f50003e003a0035003700e8
:10536c0063004400e40044001080fb004800dd00b2
:10537c009180fb00010040005a0d0700c000900016
:10538c00e28f500004003a003000900010007800ca
:10539c006101b80009003700e48f500003003a00a7
:1053ac00300090001001be00040037003000900067
:1053bc00104078000081fb000300200090cab3006d
:1053cc00004c780080c6b300104498000040eb00fd
:1053dc00204498004818de0001002000504498003a
:1053ec004018de000100200060449800481add00df
:1053fc004810de0000007200c818de0070449800ef
:10540c00024c98009100200008007800350107003c
:10541c0000c0ea00104c9800a100200008007800a1
:10542c003f01070010002000e09e880080007800fb
:10543c000a0037003d010700110020000004e000c5
:10544c0006003a000000eb00e09e88008000780027
:10545c0002003700dc33ef0011002000010078005f
:10546c004f04780000000600881f78008a9fbe0059
:10547c0000047800f09e80000000e0000300320081
:10548c00e10f500049003a0040003700630244002d
:10549c00e4024400584190004811dd000300200054
:1054ac00684090000080fb000100200002014000d9
:1054bc0083814800c819dd000280fd00824178001c
:1054cc000041eb00784090000080fb0001002000c0
:1054dc000201400083814800c819dd000280fd00f4
:1054ec00824178000041eb00084890000080fb00ee
:1054fc000100200002054000838548001480fb0059
:10550c004800dd009580fb0001004000f50c070011
:10551c00c0009000e28f500003003a002000900081
:10552c000a08780007003700e48f500003003a00a7
:10553c00200090000a88be00020037002000900076
:10554c000a48780090cab300004c780078405000ac
:10555c00104498000040eb0020449800910020007b
:10556c0008007800df00070000c0ea00104c98002b
:10557c00a100200008007800e900070010002000be
:10558c00f09e8800800078000a003700e7000700d2
:10559c00110020000004e00006003a000000eb00bf
:1055ac00f09e88008000780002003700de33ef00a8
:1055bc0011002000010078004f05be004f04780058
:1055cc0000000600881f780000047800409f8000cf
:1055dc00e20f50004000320005003e000000e000e9
:1055ec0008003200e10f500085003a00340037000b
:1055fc00e30f50004b003200e40f500080003a00e3
:10560c004f00370068034400e70244009680fb001b
:10561c001580fb004800dd0000814000329f8800af
:10562c0065024400e40144009480fb001380fb00fd
:10563c004800dd0080804000019f88000200e000ef
:10564c001b003a0090cab300004c780010c7b3009e
:10565c0010449800224498003244980081ccb30046
:10566c0081497800024a780060c0b3006044980019
:10567c00824a7800014b78009100200008007800e5
:10568c009800070001002000109f8800219f8800cf
:10569c0000c0ea00104c9800a1002000080078001f
:1056ac009f00070010002000409f88005800370022
:1056bc0020002000409f880010002000540037007c
:1056cc009a0007000004e00050003a000000eb00d4
:1056dc00409f88004e00370090cab300004c780001
:1056ec0010c7b30010449800e233ef00e433ef002e
:1056fc001880fb004800dd001007b00001002000fe
:10570c00109f8800219f880021002000080078004d
:10571c008300070030002000409f8800100020000c
:10572c003b003700810007000004e00037003a001e
:10573c0040002000409f88001000200034003700fb
:10574c00e613e2001e003200009f800000004000c3
:10575c000180200060807800cf80de00129f8000e6
:10576c00239f80000001410081814900129f880025
:10577c00239f880008802000009f800000004000cc
:10578c0060007c007c0607000004e000faff320099
:10579c0008802000009f80000000400060007c001a
:1057ac004880de00740607000004e000f9ff3200b8
:1057bc00e033ec00e633ed0010002000140037005d
:1057cc00e2d3bf006c0607000004e000fcff3200cf
:1057dc00109f8000219f80004809dd004800de00fa
:1057ec0000007100c808de00630607000004e0003a
:1057fc00f7ff32000000eb00409f880004003700e8
:10580c00e833ef00100020000100370010002000ea
:10581c004f04780000000600881f78000004780010
:10582c00509f8000e10f50001d0032000300390032
:10583c00e20f500026003a0021003700ee0307006b
:10584c008000eb00e14f500023003a0090cab300f7
:10585c00004c780070c5b300104498000040eb0079
:10586c0020449800304498004044980050449800dc
:10587c006044980070449800004c980000c0eb0005
:10588c00104c9800a10020000800780024000700ac
:10589c0010002000509f8800800078000e00370018
:1058ac0022000700110020000004e0000a003a006a
:1058bc0020002000509f88001100200006003700b7
:1058cc00000104000000000011002000020037005d
:1058dc00ea33ef0011002000010078004f0478003b
:1058ec0000000600000278000100e00002003a000f
:1058fc0081017800080037000001eb00820178007c
:10590c0062407a000080fb00808141000201e800c7
:10591c00828f5000faff3a00030078000000060066
:10592c00b09f8800c19f8800000006008000eb003b
:10593c00f813e20009003200b09f8000104078009c
:10594c000d06070011002000e14f500003003a0043
:10595c00f833ed00f633ec00110020000100780064
:10596c0000000600889fbe008a1f78008004780023
:10597c000105780002047800800078000a007800a5
:10598c00bc030700080440006149b9006152b9002a
:10599c000210b8000391b9000201410081004100de
:1059ac000421b80005a2b9000402420083014200a0
:1059bc000000410081804900430407008004780006
:1059cc0000002100808f5400020036008004780013
:1059dc00030037000900e00001003d008004eb00eb
:1059ec001a002000b0aa2200800f540007003600d5
:1059fc001a00200051552d00b0aa220001044400c9
:105a0c000a05e800800f5400fcff3e00b0aa2200fb
:105a1c0080004400e0a22000808f50000b003c006e
:105a2c00105d2f00808f50000800340040322000a1
:105a3c000088b9004809dd004800de000000710054
:105a4c00c888de0000017800040037004708de003b
:105a5c000000400061482900608178008041eb0023
